{
  "contractName": "Crud",
  "abi": [
    {
      "inputs": [
        {
          "internalType": "uint256",
          "name": "",
          "type": "uint256"
        }
      ],
      "name": "users",
      "outputs": [
        {
          "internalType": "uint256",
          "name": "id",
          "type": "uint256"
        },
        {
          "internalType": "string",
          "name": "name",
          "type": "string"
        }
      ],
      "stateMutability": "view",
      "type": "function",
      "constant": true
    },
    {
      "inputs": [
        {
          "internalType": "string",
          "name": "_name",
          "type": "string"
        }
      ],
      "name": "create",
      "outputs": [],
      "stateMutability": "nonpayable",
      "type": "function"
    },
    {
      "inputs": [
        {
          "internalType": "uint256",
          "name": "_id",
          "type": "uint256"
        }
      ],
      "name": "read",
      "outputs": [
        {
          "internalType": "uint256",
          "name": "",
          "type": "uint256"
        },
        {
          "internalType": "string",
          "name": "",
          "type": "string"
        }
      ],
      "stateMutability": "view",
      "type": "function",
      "constant": true
    },
    {
      "inputs": [
        {
          "internalType": "uint256",
          "name": "_id",
          "type": "uint256"
        },
        {
          "internalType": "string",
          "name": "_name",
          "type": "string"
        }
      ],
      "name": "update",
      "outputs": [],
      "stateMutability": "nonpayable",
      "type": "function"
    },
    {
      "inputs": [
        {
          "internalType": "uint256",
          "name": "_id",
          "type": "uint256"
        }
      ],
      "name": "destroy",
      "outputs": [],
      "stateMutability": "nonpayable",
      "type": "function"
    }
  ],
  "bytecode": "0x60806040526001805534801561001457600080fd5b50610a62806100246000396000f3fe608060405234801561001057600080fd5b50600436106100575760003560e01c8063365b98b21461005c5780639d1187701461008d578063b6a46b3b146100a9578063ed2e5a97146100c5578063f745630f146100f6575b600080fd5b610076600480360381019061007191906106de565b610112565b604051610084929190610803565b60405180910390f35b6100a760048036038101906100a291906106de565b6101ce565b005b6100c360048036038101906100be919061069d565b610242565b005b6100df60048036038101906100da91906106de565b6102c8565b6040516100ed929190610803565b60405180910390f35b610110600480360381019061010b9190610707565b610406565b005b6000818154811061012257600080fd5b906000526020600020906002020160009150905080600001549080600101805461014b906108fc565b80601f0160208091040260200160405190810160405280929190818152602001828054610177906108fc565b80156101c45780601f10610199576101008083540402835291602001916101c4565b820191906000526020600020905b8154815290600101906020018083116101a757829003601f168201915b5050505050905082565b60006101d982610478565b905060008181548110610215577f4e487b7100000000000000000000000000000000000000000000000000000000600052603260045260246000fd5b906000526020600020906002020160008082016000905560018201600061023c919061053d565b50505050565b6000604051806040016040528060015481526020018381525090806001815401808255809150506001900390600052602060002090600202016000909190919091506000820151816000015560208201518160010190805190602001906102aa92919061057d565b505050600160008154809291906102c09061092e565b919050555050565b6000606060006102d784610478565b905060008181548110610313577f4e487b7100000000000000000000000000000000000000000000000000000000600052603260045260246000fd5b9060005260206000209060020201600001546000828154811061035f577f4e487b7100000000000000000000000000000000000000000000000000000000600052603260045260246000fd5b906000526020600020906002020160010180805461037c906108fc565b80601f01602080910402602001604051908101604052809291908181526020018280546103a8906108fc565b80156103f55780601f106103ca576101008083540402835291602001916103f5565b820191906000526020600020905b8154815290600101906020018083116103d857829003601f168201915b505050505090509250925050915091565b600061041183610478565b9050816000828154811061044e577f4e487b7100000000000000000000000000000000000000000000000000000000600052603260045260246000fd5b9060005260206000209060020201600101908051906020019061047292919061057d565b50505050565b600080600090505b6000805490508110156104fc5782600082815481106104c8577f4e487b7100000000000000000000000000000000000000000000000000000000600052603260045260246000fd5b90600052602060002090600202016000015414156104e95780915050610538565b80806104f49061092e565b915050610480565b506040517f08c379a000000000000000000000000000000000000000000000000000000000815260040161052f906107e3565b60405180910390fd5b919050565b508054610549906108fc565b6000825580601f1061055b575061057a565b601f0160209004906000526020600020908101906105799190610603565b5b50565b828054610589906108fc565b90600052602060002090601f0160209004810192826105ab57600085556105f2565b82601f106105c457805160ff19168380011785556105f2565b828001600101855582156105f2579182015b828111156105f15782518255916020019190600101906105d6565b5b5090506105ff9190610603565b5090565b5b8082111561061c576000816000905550600101610604565b5090565b600061063361062e84610864565b610833565b90508281526020810184848401111561064b57600080fd5b6106568482856108ba565b509392505050565b600082601f83011261066f57600080fd5b813561067f848260208601610620565b91505092915050565b60008135905061069781610a15565b92915050565b6000602082840312156106af57600080fd5b600082013567ffffffffffffffff8111156106c957600080fd5b6106d58482850161065e565b91505092915050565b6000602082840312156106f057600080fd5b60006106fe84828501610688565b91505092915050565b6000806040838503121561071a57600080fd5b600061072885828601610688565b925050602083013567ffffffffffffffff81111561074557600080fd5b6107518582860161065e565b9150509250929050565b600061076682610894565b610770818561089f565b93506107808185602086016108c9565b61078981610a04565b840191505092915050565b60006107a160138361089f565b91507f5573657220646f6573206e6f74206578697374000000000000000000000000006000830152602082019050919050565b6107dd816108b0565b82525050565b600060208201905081810360008301526107fc81610794565b9050919050565b600060408201905061081860008301856107d4565b818103602083015261082a818461075b565b90509392505050565b6000604051905081810181811067ffffffffffffffff8211171561085a576108596109d5565b5b8060405250919050565b600067ffffffffffffffff82111561087f5761087e6109d5565b5b601f19601f8301169050602081019050919050565b600081519050919050565b600082825260208201905092915050565b6000819050919050565b82818337600083830152505050565b60005b838110156108e75780820151818401526020810190506108cc565b838111156108f6576000848401525b50505050565b6000600282049050600182168061091457607f821691505b60208210811415610928576109276109a6565b5b50919050565b6000610939826108b0565b91507fffffffffffffffffffffffffffffffffffffffffffffffffffffffffffffffff82141561096c5761096b610977565b5b600182019050919050565b7f4e487b7100000000000000000000000000000000000000000000000000000000600052601160045260246000fd5b7f4e487b7100000000000000000000000000000000000000000000000000000000600052602260045260246000fd5b7f4e487b7100000000000000000000000000000000000000000000000000000000600052604160045260246000fd5b6000601f19601f8301169050919050565b610a1e816108b0565b8114610a2957600080fd5b5056fea26469706673582212208ab6f98d45c07947eb731b0f28d1cbf30ec768302d044e5b49fb49a3537eb80964736f6c63430008000033",
  "immutableReferences": {},
  "source": "// SPDX-License-Identifier: MIT\npragma solidity ^0.8.0;\ncontract Crud {\n    struct User {\n        uint id;\n        string name;\n    }\n    User[] public users;\n    uint nextId = 1;\n\n    function create(string memory _name) public {\n        users.push(User(nextId , _name));\n        nextId++;\n    }\n\n    function read(uint _id) public view returns(uint , string memory) {\n      uint i  = find(_id);\n      return (users[i].id , users[i].name);\n    }\n\n    function update(uint _id , string memory _name) public {\n      uint i  = find(_id);\n      users[i].name = _name;\n    }\n\n    function destroy(uint _id) public {\n      uint i  = find(_id);\n      delete users[i];\n    }\n\n    function find(uint _id) view internal returns(uint) {\n      for(uint i = 0; i < users.length; i++){\n        if(users[i].id == _id) {\n          return i;\n        }\n      }\n      revert('User does not exist');\n    }\n}",
  "sourcePath": "/Users/macos/Code/CodeForFun/solidity-samples/solidity-testing/contracts/Crud.sol",
  "compiler": {
    "name": "solc",
    "version": "0.8.0+commit.c7dfd78e.Emscripten.clang"
  },
  "schemaVersion": "3.3.4",
  "updatedAt": "2021-04-18T01:23:33.073Z",
  "networkType": "ethereum",
  "devdoc": {
    "kind": "dev",
    "methods": {},
    "version": 1
  },
  "userdoc": {
    "kind": "user",
    "methods": {},
    "version": 1
  }
}